{
  "_format": "hh-sol-artifact-1",
  "contractName": "MedVaultRecords",
  "sourceName": "contracts/MedVaultRecords.sol",
  "abi": [
    {
      "inputs": [],
      "stateMutability": "nonpayable",
      "type": "constructor"
    },
    {
      "anonymous": false,
      "inputs": [
        {
          "indexed": false,
          "internalType": "string",
          "name": "id",
          "type": "string"
        },
        {
          "indexed": false,
          "internalType": "string",
          "name": "patientName",
          "type": "string"
        }
      ],
      "name": "PatientRegistered",
      "type": "event"
    },
    {
      "inputs": [],
      "name": "owner",
      "outputs": [
        {
          "internalType": "address",
          "name": "",
          "type": "address"
        }
      ],
      "stateMutability": "view",
      "type": "function"
    },
    {
      "inputs": [
        {
          "internalType": "string",
          "name": "",
          "type": "string"
        }
      ],
      "name": "patients",
      "outputs": [
        {
          "internalType": "string",
          "name": "id",
          "type": "string"
        },
        {
          "internalType": "string",
          "name": "name",
          "type": "string"
        },
        {
          "internalType": "string",
          "name": "gender",
          "type": "string"
        },
        {
          "internalType": "string",
          "name": "dateOfBirth",
          "type": "string"
        },
        {
          "internalType": "string",
          "name": "imageUrl",
          "type": "string"
        },
        {
          "internalType": "string",
          "name": "medicalHistory",
          "type": "string"
        },
        {
          "internalType": "string",
          "name": "treatmentHistory",
          "type": "string"
        }
      ],
      "stateMutability": "view",
      "type": "function"
    },
    {
      "inputs": [
        {
          "internalType": "string",
          "name": "id",
          "type": "string"
        },
        {
          "internalType": "string",
          "name": "name",
          "type": "string"
        },
        {
          "internalType": "string",
          "name": "gender",
          "type": "string"
        },
        {
          "internalType": "string",
          "name": "dateOfBirth",
          "type": "string"
        },
        {
          "internalType": "string",
          "name": "imageUrl",
          "type": "string"
        },
        {
          "internalType": "string",
          "name": "medicalHistory",
          "type": "string"
        },
        {
          "internalType": "string",
          "name": "treatmentHistory",
          "type": "string"
        }
      ],
      "name": "registerPatient",
      "outputs": [],
      "stateMutability": "nonpayable",
      "type": "function"
    }
  ],
  "bytecode": "0x608060405234801561001057600080fd5b50336000806101000a81548173ffffffffffffffffffffffffffffffffffffffff021916908373ffffffffffffffffffffffffffffffffffffffff160217905550610ea4806100606000396000f3fe608060405234801561001057600080fd5b50600436106100415760003560e01c80638da5cb5b14610046578063a30b6ec314610064578063c6009d8414610080575b600080fd5b61004e6100b6565b60405161005b91906106b9565b60405180910390f35b61007e6004803603810190610079919061082e565b6100da565b005b61009a60048036038101906100959190610994565b610268565b6040516100ad9796959493929190610a5c565b60405180910390f35b60008054906101000a900473ffffffffffffffffffffffffffffffffffffffff1681565b60008054906101000a900473ffffffffffffffffffffffffffffffffffffffff1673ffffffffffffffffffffffffffffffffffffffff163373ffffffffffffffffffffffffffffffffffffffff161461013257600080fd5b60006040518060e001604052808981526020018881526020018781526020018681526020018581526020018481526020018381525090508060018960405161017a9190610b38565b9081526020016040518091039020600082015181600001908161019d9190610d65565b5060208201518160010190816101b39190610d65565b5060408201518160020190816101c99190610d65565b5060608201518160030190816101df9190610d65565b5060808201518160040190816101f59190610d65565b5060a082015181600501908161020b9190610d65565b5060c08201518160060190816102219190610d65565b509050507ff57ecee040edfbd184404d12d5f2f7343575add2ba648066a9a501fa19bf3a278888604051610256929190610e37565b60405180910390a15050505050505050565b6001818051602081018201805184825260208301602085012081835280955050505050506000915090508060000180546102a190610b7e565b80601f01602080910402602001604051908101604052809291908181526020018280546102cd90610b7e565b801561031a5780601f106102ef5761010080835404028352916020019161031a565b820191906000526020600020905b8154815290600101906020018083116102fd57829003601f168201915b50505050509080600101805461032f90610b7e565b80601f016020809104026020016040519081016040528092919081815260200182805461035b90610b7e565b80156103a85780601f1061037d576101008083540402835291602001916103a8565b820191906000526020600020905b81548152906001019060200180831161038b57829003601f168201915b5050505050908060020180546103bd90610b7e565b80601f01602080910402602001604051908101604052809291908181526020018280546103e990610b7e565b80156104365780601f1061040b57610100808354040283529160200191610436565b820191906000526020600020905b81548152906001019060200180831161041957829003601f168201915b50505050509080600301805461044b90610b7e565b80601f016020809104026020016040519081016040528092919081815260200182805461047790610b7e565b80156104c45780601f10610499576101008083540402835291602001916104c4565b820191906000526020600020905b8154815290600101906020018083116104a757829003601f168201915b5050505050908060040180546104d990610b7e565b80601f016020809104026020016040519081016040528092919081815260200182805461050590610b7e565b80156105525780601f1061052757610100808354040283529160200191610552565b820191906000526020600020905b81548152906001019060200180831161053557829003601f168201915b50505050509080600501805461056790610b7e565b80601f016020809104026020016040519081016040528092919081815260200182805461059390610b7e565b80156105e05780601f106105b5576101008083540402835291602001916105e0565b820191906000526020600020905b8154815290600101906020018083116105c357829003601f168201915b5050505050908060060180546105f590610b7e565b80601f016020809104026020016040519081016040528092919081815260200182805461062190610b7e565b801561066e5780601f106106435761010080835404028352916020019161066e565b820191906000526020600020905b81548152906001019060200180831161065157829003601f168201915b5050505050905087565b600073ffffffffffffffffffffffffffffffffffffffff82169050919050565b60006106a382610678565b9050919050565b6106b381610698565b82525050565b60006020820190506106ce60008301846106aa565b92915050565b6000604051905090565b600080fd5b600080fd5b600080fd5b600080fd5b6000601f19601f8301169050919050565b7f4e487b7100000000000000000000000000000000000000000000000000000000600052604160045260246000fd5b61073b826106f2565b810181811067ffffffffffffffff8211171561075a57610759610703565b5b80604052505050565b600061076d6106d4565b90506107798282610732565b919050565b600067ffffffffffffffff82111561079957610798610703565b5b6107a2826106f2565b9050602081019050919050565b82818337600083830152505050565b60006107d16107cc8461077e565b610763565b9050828152602081018484840111156107ed576107ec6106ed565b5b6107f88482856107af565b509392505050565b600082601f830112610815576108146106e8565b5b81356108258482602086016107be565b91505092915050565b600080600080600080600060e0888a03121561084d5761084c6106de565b5b600088013567ffffffffffffffff81111561086b5761086a6106e3565b5b6108778a828b01610800565b975050602088013567ffffffffffffffff811115610898576108976106e3565b5b6108a48a828b01610800565b965050604088013567ffffffffffffffff8111156108c5576108c46106e3565b5b6108d18a828b01610800565b955050606088013567ffffffffffffffff8111156108f2576108f16106e3565b5b6108fe8a828b01610800565b945050608088013567ffffffffffffffff81111561091f5761091e6106e3565b5b61092b8a828b01610800565b93505060a088013567ffffffffffffffff81111561094c5761094b6106e3565b5b6109588a828b01610800565b92505060c088013567ffffffffffffffff811115610979576109786106e3565b5b6109858a828b01610800565b91505092959891949750929550565b6000602082840312156109aa576109a96106de565b5b600082013567ffffffffffffffff8111156109c8576109c76106e3565b5b6109d484828501610800565b91505092915050565b600081519050919050565b600082825260208201905092915050565b60005b83811015610a175780820151818401526020810190506109fc565b60008484015250505050565b6000610a2e826109dd565b610a3881856109e8565b9350610a488185602086016109f9565b610a51816106f2565b840191505092915050565b600060e0820190508181036000830152610a76818a610a23565b90508181036020830152610a8a8189610a23565b90508181036040830152610a9e8188610a23565b90508181036060830152610ab28187610a23565b90508181036080830152610ac68186610a23565b905081810360a0830152610ada8185610a23565b905081810360c0830152610aee8184610a23565b905098975050505050505050565b600081905092915050565b6000610b12826109dd565b610b1c8185610afc565b9350610b2c8185602086016109f9565b80840191505092915050565b6000610b448284610b07565b915081905092915050565b7f4e487b7100000000000000000000000000000000000000000000000000000000600052602260045260246000fd5b60006002820490506001821680610b9657607f821691505b602082108103610ba957610ba8610b4f565b5b50919050565b60008190508160005260206000209050919050565b60006020601f8301049050919050565b600082821b905092915050565b600060088302610c117fffffffffffffffffffffffffffffffffffffffffffffffffffffffffffffffff82610bd4565b610c1b8683610bd4565b95508019841693508086168417925050509392505050565b6000819050919050565b6000819050919050565b6000610c62610c5d610c5884610c33565b610c3d565b610c33565b9050919050565b6000819050919050565b610c7c83610c47565b610c90610c8882610c69565b848454610be1565b825550505050565b600090565b610ca5610c98565b610cb0818484610c73565b505050565b5b81811015610cd457610cc9600082610c9d565b600181019050610cb6565b5050565b601f821115610d1957610cea81610baf565b610cf384610bc4565b81016020851015610d02578190505b610d16610d0e85610bc4565b830182610cb5565b50505b505050565b600082821c905092915050565b6000610d3c60001984600802610d1e565b1980831691505092915050565b6000610d558383610d2b565b9150826002028217905092915050565b610d6e826109dd565b67ffffffffffffffff811115610d8757610d86610703565b5b610d918254610b7e565b610d9c828285610cd8565b600060209050601f831160018114610dcf5760008415610dbd578287015190505b610dc78582610d49565b865550610e2f565b601f198416610ddd86610baf565b60005b82811015610e0557848901518255600182019150602085019450602081019050610de0565b86831015610e225784890151610e1e601f891682610d2b565b8355505b6001600288020188555050505b505050505050565b60006040820190508181036000830152610e518185610a23565b90508181036020830152610e658184610a23565b9050939250505056fea26469706673582212200130f59e120fecc43a2dc5d4bb42b65563d59259e1fbe42759134157b623b47c64736f6c63430008110033",
  "linkReferences": {},
  "deployedLinkReferences": {}
}